:020000040800F2
:1000000060520020C10100084B150008911400083F
:1000100049150008C30D0008F11900080000000090
:10002000000000000000000000000000C5170008EC
:100030005510000800000000C91500089D180008B0
:10004000DB010008DB010008DB010008DB01000820
:10005000DB010008DB010008DB010008DB01000810
:10006000DB010008DB010008DB010008DB01000800
:10007000C50D0008DB010008DB010008DB010008FA
:10008000DB010008DB010008DB010008DB010008E0
:10009000DB010008DB010008DB010008DB010008D0
:1000A000DB010008DB010008DB010008DB010008C0
:1000B000DB010008DB010008DB010008DB010008B0
:1000C000DB010008DB010008DB010008DB010008A0
:1000D000DB010008DB010008DB010008DB01000890
:1000E000DB010008DB010008DB010008DB01000880
:1000F000DB010008DB010008DB010008DB01000870
:10010000DB010008E5160008DB010008DB01000840
:10011000DB010008DB010008DB010008DB0100084F
:10012000DB010008DB010008DB010008C90D000845
:10013000DB010008DB010008DB010008DB0100082F
:10014000DB010008DB010008DB010008DB0100081F
:10015000DB010008DB010008DB010008DB0100080F
:10016000DB010008DB010008DB010008DB010008FF
:10017000DB010008DB010008DB010008DB010008EF
:10018000DB010008DB010008DB010008DB010008DF
:10019000DB010008DB010008DB010008DB010008CF
:1001A000DB010008DB010008DB010008DFF80CD0F0
:1001B00000F0CCFB00480047992400086052002062
:1001C0000648804706480047FEE7FEE7FEE7FEE7F1
:1001D000FEE7FEE7FEE7FEE7FEE7FEE7A118000800
:1001E000AD0100082DE9F05F0546002092469B46D0
:1001F00088460646814640241BE02846414647463D
:10020000224600F06EFA53465A46C01A914110D366
:1002100011461846224600F055FA2D1A67EB0108E0
:100220004F4622460120002100F04CFA17EB00094E
:100230004E41201EA4F10104DFDC484631462A4627
:100240004346BDE8F09F0000004870477034000846
:1002500010B50446FFF7F8FF0068005D00F00100EC
:1002600010BD40EA01039B0703D009E008C9121F33
:1002700008C0042AFAD203E011F8013B00F8013B60
:10028000521EF9D27047D2B201E000F8012B491E8C
:10029000FBD270470022F6E710B513460A46044623
:1002A0001946FFF7F0FF204610BD421C10F8011B55
:1002B0000029FBD1801A7047CBB203E00178994244
:1002C00003D0401C521EF9D20020704730B50446BE
:1002D0000020034600E05B1C934203D2E05CCD5C4F
:1002E000401BF8D030BD2DE9F04791460F468046BF
:1002F0000446002614F8015B2DB1FFF7A5FF006846
:10030000405DC007F6D12B2D02D02D2D18D0641ED4
:100310004A463946204600F006FA27B13968A1421C
:1003200001D1C7F8008071054FF002040BD540429F
:10033000002803DD01F0A4FB0460A007BDE8F087FE
:1003400046F48066E4E70028F8DA01F099FB0460DF
:100350006FF00040F2E72DE9FE4F804681EA03008E
:10036000C00F0C46009021F0004123F00045B8EB8F
:100370000200A94105D24046214690461C460B4644
:10038000024623F00040104347D0270DC7F30A0070
:10039000C3F30A510290401A019040286BDAC3F36C
:1003A000130040F4801B0098924620B10023D2EB4A
:1003B000030A63EB0B0B01985946C0F1400250460B
:1003C00000F080F906460D4650465946019A00F065
:1003D00098F910EB08006141002487EA115284EA81
:1003E000E7731A4340D0009A62B3019A012A4FEA98
:1003F000075215DC001B61EB02014FF0004202EADC
:100400000752CDE90042001C41F5801132462B46CF
:1004100000F035FA03B0BDE8F08F40462146F9E719
:10042000001B61EB0201001C41F5801300185B41C9
:100430002018A2F5001747EB030140EAD570B61962
:100440006D4111E06D084FEA360645EAC0754FEA86
:100450000752001B61EB0201001C41F580114908A5
:100460004FEA30000019514132462B4603B0BDE837
:10047000F04F00F0F5B90098012240000023D0EBC6
:10048000020263EBE073009821464FEAE074B8EB98
:10049000000061EB0401E9E783F000435BE781F0D2
:1004A000004158E72DE9FE4F81EA030404F00044BF
:1004B00021F0004100944FF0000B23F0004350EA7C
:1004C00001045ED052EA03045BD0C3F30A54C1F3C3
:1004D0000A552C44A4F2F3340194A0FB0254C1F356
:1004E000130141F48011C3F3130343F4801301FBA0
:1004F000024400FB034E840A970A44EA815447EA07
:100500008357A4FB076802958D0A05FB07854FEA10
:10051000932C04FB0C542705029D4FEA065847EA2A
:100520001637B5EB08056EEB070C870E920E47EAFF
:10053000811742EA8312A7FB0201B6EB0B0164EBC1
:1005400000042B0D43EA0C335E1844EB1C50DA46D2
:100550005146E7FB0201C5F313044FEA0B3343EAAC
:1005600014534FEA0432019C43EA0603A4F10C043D
:100570000294009CCDE900B400F081F903B0BDE81D
:10058000F08F00200146F9E72DE9F04D81EA0304E0
:1005900004F0004B21F0004514464FF0000A23F010
:1005A000004150EA050220D054EA01021DD0C5F3F3
:1005B0000A570246C5F31303C1F31300C1F30A56E9
:1005C00040F4801543F48013A7EB0608101BD646B1
:1005D00008F2FD3873EB050002D308F1010801E0D1
:1005E00092185B41B8F1000F03DA00200146BDE824
:1005F000F08D00204FF48011064684460EE0171B54
:1006000073EB050705D3121B63EB050306434CEAA6
:10061000010C49084FEA300092185B4150EA01078B
:10062000EDD152EA030012D082EA040083EA050108
:10063000084305D0101BAB4106D20122002306E07F
:1006400000224FF0004302E06FF0010253101AEB5A
:1006500006004CEB085110EB0A0041EB0B01BDE822
:10066000F04D00F0FDB8000030B5041E71F100043B
:1006700004DB4FF00044404264EB0101141E73F1AF
:10068000000405DB1C464FF00043524263EB0403B9
:10069000994208BF904230BD30B50B46014600205C
:1006A0002022012409E021FA02F59D4205D303FA34
:1006B00002F5491B04FA02F52844151EA2F10102B5
:1006C000F1DC30BD202A04DB203A00FA02F10020E0
:1006D00070479140C2F1200320FA03F31943904080
:1006E0007047202A04DB203A21FA02F000217047EB
:1006F00021FA02F3D040C2F120029140084319468A
:100700007047202A06DBCB17203A41FA02F043EA71
:10071000E07306E041FA02F3D040C2F120029140BA
:100720000843194670472DE9F05F8246007800279C
:1007300015468B460AF10104B946302801D09DB117
:1007400013E014F8010B0127782803D0582801D0B2
:1007500045B10AE00DB1102D07D10027102514F87E
:10076000010B02E0082500E00A250026B0460EE055
:1007700005FB080005FB06F1012701EB10461FFAF7
:1007800080F8B6F5803F00D3B94614F8010B29462E
:1007900000F0EEF80028EBDABBF1000F05D00FB146
:1007A000641E00E05446CBF80040B9F1000F06D0BB
:1007B00001F066F902210160C81EBDE8F09F48EA19
:1007C0000640FAE70FB4002300B589B00CA90091E8
:1007D0000B996FF00042CB601E4B06931E4B0793A4
:1007E0000423CDE901321D4A089202466B460020DF
:1007F00000F04CF909B05DF814FB70B586B0064600
:100800004FF0FF300091CDE90101002015460C4664
:1008100004903246694604A8FFF7D4FF02460498C4
:10082000211825B108B1084600E020462860049848
:1008300000280DD0002A02DD0098884208D0081B4D
:100840000094CDE901043246694604A8FFF7BAFFD7
:1008500006B070BDC50C0008E30C0008510200088A
:1008600010B5141E73F1000408DA401C41F10001B8
:1008700092185B411A4301D120F0010010BD2DE90F
:10088000F04D92469B4611B1B1FA81F202E0B0FA06
:1008900080F220329046FFF715FF04460F4640EAEB
:1008A0000A0041EA0B0153465A46084313D0114649
:1008B00053EA010019D0C8F140025046FFF711FF7A
:1008C00005460E46504659464246FFF7FBFE084392
:1008D00005D0012004E020463946BDE8F08D002017
:1008E000054346EAE0762C4337430A986305E40A59
:1008F000A0EB08000022FD0A44EA47540A3002D562
:1009000000200146E9E7010510196941DDE90845C4
:1009100000196941BDE8F04DA2E7C1F30A52C1F3E5
:10092000130140F2FF3341F480119A4202DA0020B1
:100930000146704740F233439A42A2F2334202DC4E
:100940005242FFF7CEBEFFF7BDBE0000064C074D7A
:1009500006E0E06840F0010394E80700984710348F
:10096000AC42F6D3FFF726FCE0340008003500085F
:100970003A2800D2303820F02002412A01D3A2F1D7
:100980003700884201D34FF0FF3070472DE9FF4F09
:10099000087881B09946FF2805D0491C2D2804D03D
:1009A0000024002308E000230BE00124F9E703EB17
:1009B000830300EB4303491C0878FF28F7D104B1F7
:1009C0005B4200200090147801462D2C01D02B2C86
:1009D00004D1521C2D2C12D000240094002516782E
:1009E000FF2E0ED00A24A0FB04C801FB04810027BF
:1009F00000FB0711521C16EB0C006941EFE70124C4
:100A0000EBE7994450EA01020ED00024AA4D264695
:100A1000DFF8A88200F076F982468B46B9F1000033
:100A200009DAC9F100071BE001980021C0E90011B3
:100A300005B0BDE8F08F074612E0F80707D0224660
:100A40002B4630464146FFF72DFD06468846224696
:100A50002B4610461946FFF725FD04460D467F102C
:100A6000002FEAD1B9F1000F3246434650465946AD
:100A700002DAFFF789FD01E0FFF714FD009A0AB1E1
:100A800081F00041019AC2E90001D1E72DE9FF4F51
:100A90001F468DB0D7E901464FF0FF382E2045465E
:100AA0004FF000090B90B9696D1C0E988847396AA0
:100AB000824688470028F6D1BAF1FF3F0AD024F4D5
:100AC000D064002E11DDBAF12B0F08D0BAF12D0F32
:100AD0000BD102E0404611B0ABE744F48064B96941
:100AE0006D1C0E9888478246761E6946600501D5C2
:100AF0002D2000E02B208DF8000001F1010B0DF1FD
:100B0000200809E0B9696D1C0E98884782460F9845
:100B100044F40074761E0560002E02DDBAF1300F39
:100B2000F0D00B998A453ED144F0800406E00F993D
:100B3000681CA9F1010944F400740860B9696D1CCE
:100B4000761E0E98884782463028F0D02BE00B990D
:100B50008A4505D1200603D444F08004761E18E0AF
:100B6000504601F063F808B30DF11301761E44F40A
:100B700000748B4508D2AAF130000BF8010B200657
:100B800007D5A9F1010003E0200602D409F1010014
:100B90008146A00502D50F99681C0860B9696D1CD3
:100BA0000E9888478246002ED1DC53E0002E51DD9E
:100BB000BAF1650F02D0BAF1450F4BD1A00549D566
:100BC000B9696D1C24F44074761E0E9888478246DD
:100BD000002E0CDD2B2804D0BAF12D0F07D144F4E0
:100BE0008074B9696D1C0E9888478246761EE005B0
:100BF00001D52D2100E02B2108F8011BCDF82C8018
:100C000021E00DF12901761E44F4007488450CD2D0
:100C1000AAF1300010F0FF0088F8000002D10B9913
:100C2000884509D908F1010806E0E00501D5244806
:100C300001E042F20F708146B9696D1C0E98884739
:100C400082460F980560002E04DD504600F0EEFF4E
:100C50000028D6D1F9690E988847FF208BF800004C
:100C600088F800000020069007904B466A4608A9C5
:100C700006A8FFF78BFEA00502D46FF001002AE75B
:100C800014F0240F0AD0E00714D1DDE90612386809
:100C9000031D3B600068C0E900120BE0DDE90601BE
:100CA00000F03CF80146E00704D13868021D3A60C4
:100CB0000068016028460EE7000024400000F03F75
:100CC000F1D8FFFF426842B1016811F8013B23B13E
:100CD000521EC0E90012184670470121C160881EEB
:100CE000704742685AB1C368016843B983688B4250
:100CF00005D0491E521CC0E90012002070474FF079
:100D0000FF3070470EB540F2334202920022CDE927
:100D100000221346FFF7B3FD03B000BD01F000430E
:100D200030B421F0004150EA010206D00A0DA2F5CC
:100D30006072C1F31301002A02DC30BC002070474E
:100D4000440F44EAC104C100E01830BC00EBC250BB
:100D5000AFF300800029A8BF7047401C490008BFBE
:100D600020F00100704710B4B0FA80FC00FA0CF0DB
:100D700050EA010404BF10BC704749B1CCF1200413
:100D800021FA04F411FA0CF118BF012121430843A0
:100D9000A3EB0C01CB1D4FEA00614FEA102042BFCC
:100DA000002010BC704700EBC35010440029A4BFC2
:100DB00010BC7047401C490008BF20F0010010BC67
:100DC0007047FEE700F0EEBA00F09CBC074A904284
:100DD00001D2074801E005481038064A8B0001EAB5
:100DE000020101D5C1607047816070471064024004
:100DF000006002407D0F7D0F074A904201D20748F4
:100E000001E005481038064A8B0001EA020101D5CD
:100E1000C16070478160704710640240006002400A
:100E20007D0F7D0F002904D0016841F001010160B0
:100E30007047016821F00101016070472DE9F0431E
:100E4000016821F0010101600021016041608160C1
:100E5000C1600161212141613E493E4A10394FF094
:100E60003D08904203D1C1F80880BDE8F083394ABB
:100E70004FF474651832904201D18D60F5E7354A20
:100E80004FF474163032904201D18E60EDE7314A52
:100E90004FF074674832904201D18F60E5E72D4BE7
:100EA0002D4A6033984201D1CA60DEE7294C2B4BB2
:100EB0007834A04201D1CB60D7E7DFF898C0284C46
:100EC0000CF1900C604501D1CC60CEE7DFF8849046
:100ED0004FF03D5C09F1A809484502D1C1F80CC0AA
:100EE000C3E72049DFF87C900839484502D1C1F8B2
:100EF0000080BAE7DFF86C8008F11808404501D19E
:100F00000D60B2E7174D3035A84201D10E60ACE755
:100F1000144D4835A84201D10F60A6E7114D114983
:100F20006035091FA84201D10A609EE70D4A783258
:100F3000904201D10B6098E70A4A9032904201D169
:100F40000C6092E7074AA83290428ED1C1F800C0E7
:100F50008BE70000106002403D000020400F0020A1
:100F600000003D2010640240014600200968C907C6
:100F700000D001207047000030B500240F4A904295
:100F800001D20F4A01E00D4A103A0E4B194205D02A
:100F90001E2303EAD12503682B4002E0406900F0DC
:100FA0008003880001D5506800E01068064A1040B0
:100FB000084201D003B10124204630BD1064024034
:100FC000006002403C0F3C0F7D0F7D0F0B0609D5E2
:100FD00022B1436943F08003436103E0436923F096
:100FE00080034361802905D001F01E011AB1026817
:100FF0000A430260704702688A430260704700003B
:1010000030B50368124A1340CC680A682243D1E91C
:1010100005452C432243CC6922430C6A22434C6A87
:1010200022438C6A22434C6B22438C6B22431A432B
:101030000260426922F00703D1E90B2422431A43DC
:1010400042610A6942604A6882608968C16030BD55
:101050003F801CF07047000070B586B00121084643
:1010600000F0B4FA0121102000F0CCFA1E4E072245
:101070000A21304600F01CF907220921304600F011
:1010800017F900248DF8164001208DF8170002256D
:101090008DF81450410204918DF8155004A9304682
:1010A00000F0C8F88DF814506802049004A9304686
:1010B00000F0C0F84FF4E1300090ADF80440ADF816
:1010C0000640ADF80840ADF80C400C20ADF80A0021
:1010D000064C6946204600F029FC0121204600F01C
:1010E00007FC06B070BD0000000002400010014087
:1010F0002DE9F0470F46002A70D00C2A6ED80668FA
:1011000044688568C168D0F81090D0F814A0BBB3CB
:1011100001EB0208B8F1180F19D3A8F11808012C37
:1011200016D0032C14D0052C12D0072C10D0082C6C
:101130000ED00A2C0CD0042C11D0062C0FD0092C68
:101140000DD00B2C0BD0022C10D00C2C1CD066E038
:101150001F2D01D26D1C62E00125641C5FE01E2D75
:1011600001D26D1C5BE00125641C58E01D2D08D0E8
:101170001C2D03D1F0B200F097F910B16D1C4EE0B8
:101180000AE0012503244AE01F2D01D26D1C46E030
:1011900001250124761C42E0914202D3A1EB020812
:1011A0003DE0A1EB020808F11808022C17D0042C2E
:1011B00015D0062C13D0082C11D0092C0FD00B2CD5
:1011C0000DD0052C12D0072C10D00A2C0ED00C2CD0
:1011D0000CD0032C11D0012C1AD020E028E0012DD6
:1011E00001D96D1E1BE01F25641E18E0012D01D9D9
:1011F0006D1E14E01E25641E11E0012D03D1F0B216
:1012000000F052F908B16D1E09E01C25022406E029
:10121000012D01D96D1E02E01F250C24761E3E60B3
:101220007C60BD60C7F80C80C7F81090C7F814A0A8
:10123000BDE8F0872DE9F041002201274FF0030CB3
:1012400007FA02F50B682B40AB422CD1066853001D
:101250000CFA03F4A64306600E79D0F800809E4095
:1012600046EA080606600E79012E01D0022E12D140
:101270008668A64386604E79D0F808809E4046EA8C
:10128000080686604668AE43466045688E7996409B
:10129000B6B235434560C568A543C560CC799C406E
:1012A000C3681C43C460521C102AC9D3BDE8F08136
:1012B00010B54B07DB0E9A40C90800EB8100016AAC
:1012C0000F249C40A1430162016A1143016210BDD9
:1012D0004183704710B500F08FF8BDE8104000F072
:1012E00001B8000010B590B00121480500F06EF97A
:1012F0001F4C2046FFF7A2FD2046FFF735FE0028D1
:10130000FAD14FF0006001901A4802901A480390F9
:10131000002004904FF40071059106904900079158
:101320000890099089100A9109020B910C900321F1
:101330000D910E900F9001A92046FFF761FE00F07D
:101340001DF8012218212046FFF740FE012120460A
:10135000FFF768FD2046FFF707FE0128FAD1054890
:1013600001224021001F00F0CFFA10B010BD000094
:1013700028600240044800405C00002008B54FF49B
:10138000C06000F017F90C208DF8000001208DF8E6
:10139000010000218DF802108DF80300684600F06E
:1013A000D5F808BD2DE9F0410F4F104E39463046B3
:1013B000FFF7E2FD0E4D012430B16C703946304626
:1013C000BDE8F041FFF718BD0A4F30463946FFF738
:1013D000D3FD002806D02C7039463046BDE8F041D8
:1013E000FFF70ABDBDE8F08100440010286002400C
:1013F000100000200088001070B586B00121022086
:1014000000F0E4F80121880400F0EEF81E4E0722F7
:101410000B213046FFF74CFF07220A213046FFF729
:1014200047FF00248DF8164001208DF81700022593
:101430008DF81450810204918DF8155004A930469E
:10144000FFF7F8FE8DF81450A802049004A9304666
:10145000FFF7F0FE4FF416500090ADF80440ADF8E1
:101460000640ADF80840ADF80C400C20ADF80A007D
:10147000064C6946204600F059FA0121204600F04A
:1014800037FA06B070BD000000040240004800407A
:1014900001A000F0CFFAFEE7686172646661756CC6
:1014A000742121210A00000000F5FA60810701D0B3
:1014B000002070474FF4C871B0FBF1F201FB12013C
:1014C00031B16421B0FBF1F201FB12000028F0D031
:1014D000012070472DE9FC410121882000F076F8B9
:1014E0004FF48065009501218DF8041000208DF8DF
:1014F00006008DF807108DF80500114F6946384633
:10150000FFF798FE6C00009469463846FFF792FE9C
:101510006600009669463846FFF78CFE0094094F36
:1015200069463846FFF786FE054918310D800C8064
:101530000E8021463846FFF7CBFEBDE8FC81000057
:10154000001C0240000C0240FEE7704730B50F233C
:10155000C27801250178002A1FD0154A126802F4CA
:10156000E062C2F5E062C2F30722C2F10404D34094
:101570004278A24084781C401443220101F1E0210A
:1015800081F80024007800F01F018D4040098000A0
:1015900000F1E020C0F8005130BD01F01F0085408F
:1015A0004809800000F1E020C0F8805130BD000003
:1015B0000CED00E002490843024908607047000052
:1015C0000000FA050CED00E070470000054A002914
:1015D00003D01168014311607047116881431160A5
:1015E0007047000030380240054A002903D01168D6
:1015F000014311607047116881431160704700001A
:1016000040380240054A002903D0116801431160A7
:1016100070471168814311607047000044380240F0
:1016200070B5244B196801F00C01234C00291ED021
:10163000224E04291DD008291DD00460196801F02C
:10164000F00109091E4A545C0168E14041601C68D0
:1016500004F4E054A40A145D21FA04F484601B68C5
:1016600003F460435B0BD25CD140C16070BD046089
:10167000E4E70660E2E70F4A121F1168C1F38055E4
:10168000116801F03F0135B1B6FBF1F11468C4F304
:101690008814614305E0B4FBF1F11468C4F38814C5
:1016A00061431268C2F30142521C5200B1FBF2F1D5
:1016B0000160C3E7083802400024F40040787D014F
:1016C000000000200149086070470000382C0140EC
:1016D00001460020024A12680A4200D001207047E9
:1016E000342C014000F022B8054A002903D01168CB
:1016F0000143116070471168814311607047000019
:101700003C2C01400748006810F0C05F08D0064933
:101710000120486103484FF0C2515830FFF756BBD3
:1017200070470000006402401400002070B54FF4C0
:1017300080752846FFF7CCFF214C38B1002020707F
:101740002846FFF7BFFF0120206132E00220FFF7AB
:10175000BFFF28B10220FFF7B5FF0220207028E06C
:101760000820FFF7B5FF28B10820FFF7ABFF0420E2
:1017700020701EE02020FFF7ABFF28B12020FFF7EC
:10178000A1FF0620207014E01020FFF7A1FF28B170
:101790001020FFF797FF052020700AE04FF4007536
:1017A0002846FFF795FF20B12846FFF78BFF07205B
:1017B000207000214CF23A30FFF796FF207870BD80
:1017C00014000020704700001CB500210191009119
:1017D0002E4A106840F4803010604FF4A043106827
:1017E00000F4003000900198401C0190009810B95E
:1017F00001989842F3D11068800302D5012000902F
:1018000000E00091009801283FD120484030016855
:1018100041F0805101601E49086840F44040086072
:101820001A48083003680360036843F40043036008
:10183000036843F4A0530360041F164B236013682E
:1018400043F08073136013689B01FCD50A6842F46F
:1018500080320A604A68D203FCD50A6842F400323A
:101860000A604A689203FCD50B4A40F20571116088
:10187000016821F003010160016841F0020101608B
:101880000168C1F381010229FAD11CBD0038024070
:1018900000700040195A4007003C024070470000A9
:1018A00010B50F48016841F0010101600C4A0021A8
:1018B0000832116002680B4B1A400260031D0A4A8D
:1018C0001A60026822F48022026005480C30016030
:1018D000FFF77AFF05494FF00060086010BD000077
:1018E00000380240FFFFF6FE1030002408ED00E053
:1018F000002904D0818941F4005181817047818998
:1019000021F4005181817047002A03D0828A0A4362
:1019100082827047828A8A43828270470246002010
:1019200012880A4200D00120704700007FB50446AB
:101930000D46208A20F44051E88808432082A0897F
:1019400041F20C618843A9882A8911436A890243BC
:101950001143A181A08A20F44071A8890843A08284
:101960006846FFF75DFE1E48844202D01D4884424F
:1019700001D1039800E00298A189090408D500EB81
:10198000C00101EB001029684900B0FBF1F007E04D
:1019900000EBC00101EB001029688900B0FBF1F0F9
:1019A0006422B0FBF2F109010B096FF018056B43DB
:1019B00000EB8300A3891D044FF0320307D503EB2E
:1019C000C000B0FBF2F000F00700084306E003EBB4
:1019D0000010B0FBF2F000F00F00084320817FBD43
:1019E0000010014000140140C1F3080181807047DC
:1019F000FEE700007CB501214020FFF7E7FD4FF432
:101A00000074009401208DF8040000208DF8060079
:101A100002228DF807208DF80500054D69462846FD
:101A2000FFF708FC21462846FFF752FC7CBD00006A
:101A3000001802400FB4054B10B503A9044A0298E0
:101A400000F04CF910BC5DF814FB000025240008E0
:101A50004C0000207CB5044600201D461646002997
:101A60000BD0491ECDE90041044B6A462946304659
:101A700000F034F9009A002111707CBD0B2400089D
:101A8000004870475800002002E008C8121F08C133
:101A9000002AFAD170477047002001E001C1121FEF
:101AA000002AFBD1704700002DE9FF5F82B00021C2
:101AB000DDE90430020DDDF840B0034318D044F6F0
:101AC0001050A2F2FF3242431514119801281FD082
:101AD000A5EB0B00401C5FEA000A4FF000064E4FDA
:101AE000DFF83891B046504615D5CAF1000413E02E
:101AF000119801244AA3012801D16FEA0B01029831
:101B0000119AC0E90031C0E9024206B0BDE8F09F79
:101B1000CBF10000DFE704460021404A491842EBC0
:101B20000450CDE9001012E0E00707D032463B46F2
:101B300040464946FEF7B6FC8046894632463B465B
:101B400010461946FEF7AEFC06460F466410002C00
:101B5000EAD1DDE90401DDE90023BAF1000F06DA7C
:101B6000FEF7A0FC42464B46FEF79CFC05E0FEF764
:101B70000BFD42464B46FEF707FD04460E4600228B
:101B8000284BFEF771FD03D84FF0FF30014607E008
:101B90000022254B20463146FEF7DDFBFEF7BDFE59
:101BA000102409E0002C0ADB0A220023FEF71AFBAE
:101BB000039B30321A55641E50EA0102F2D1641CB4
:101BC000039AC4F111031444119A012A03D001228B
:101BD00008430DD10AE0084304D000204FF0110B58
:101BE000119072E7A3EB0B056D1E0DE05B4504DD64
:101BF0004FF0000205F1010504E003DA4FF00002A6
:101C0000A5F10105002AECD002981199C0E9023132
:101C1000C0E9004579E70000000014400000F03FF3
:101C2000300000000000F0430000E03F30380A2898
:101C300001D201207047002070470000FEB500244B
:101C400002F114052E1F331F06290BD0082914D0CA
:101C5000092912D00A2910D010A000F059FECCB1E9
:101C60000020FEBDCDE9006515A201F0AFFA032802
:101C700001D00024F3E70124F1E71832CDE9006533
:101C8000029212A201F0A2FA042801D00024E6E791
:101C90000124E4E74FF0FF30FEBD00005061727395
:101CA00065206F662074696D65206572726F7220A1
:101CB00028666F726D6174206572726F72292100DF
:101CC0002532642532642532640000002532642503
:101CD00032642532642E2564000000002DE9FF4F98
:101CE00095B09B468946064600250FE2252877D108
:101CF00000242746F84A0121059400E0044316F821
:101D0000013F203B01FA03F01042F7D130782A2836
:101D100011D06FF02F033078A0F13002092A16D8C5
:101D2000059A44F0020402EB820203EB42021044E3
:101D3000761C0590EFE759F8042B0592002A03DA88
:101D4000504244F40054059044F00204761C30786C
:101D50002E2816D116F8010F44F004042A280DD0BD
:101D60006FF02F023078A0F13003092B09D807EB70
:101D7000870302EB4303C718761CF3E759F8047B8B
:101D8000761C30786C280FD006DC4C2817D06828D9
:101D90000DD06A2814D104E0742810D07A280FD10D
:101DA0000DE044F400140AE044F4801401E044F42B
:101DB00040147278824202D104F58014761C761C9D
:101DC000307866280BD013DC582877D009DC00283F
:101DD00075D04528F6D04628F4D047281AD19DE181
:101DE00018E0632835D0642879D0652812D195E1B0
:101DF000702873D008DC6728F1D069286FD06E286E
:101E00000DD06F2806D1B5E073282CD0752875D079
:101E1000782874D05A46179990476D1C75E1C4F321
:101E20000250022809D003280DD0D9F80010042848
:101E30000DD00D6009F1040967E1D9F80010EA1727
:101E4000C1E90052F6E7D9F800100D80F2E70D70F5
:101E5000F0E719F8041B8DF8001000208DF8010040
:101E6000EA46012003E059F804AB4FF0FF30610768
:101E70004FF0000102D40DE008F101018846B9429B
:101E80000FDA8045F8DB1AF808100029F4D108E0D1
:101E900008F1010188468142FADB1AF8081000298E
:101EA000F6D105985B46A0EB080721463846179AFD
:101EB00000F094FA284400EB080507E04DE029E122
:101EC0000DE01AF8010B5A4617999047B8F101082E
:101ED000F7D25B4621463846179A13E142E00A22C0
:101EE0000092C4F302524FF0000A022A08D059F8B7
:101EF00004CB032A4FEAEC710AD00DE029E02AE076
:101F000009F1070121F00702F2E802C1914609E058
:101F10000FFA8CFC4FEAEC71042A03D14FFA8CFCC7
:101F20004FEAEC71002907DA0A460021DCF1000CC7
:101F300061EB02012D2202E0220504D52B228DF84F
:101F40000420012203E0E20701D02022F7E79046B7
:101F500059E00A2102E010220DE010214FF0000AA2
:101F600000910BE010224FF0000A44F0040408270F
:101F7000009203E008224FF0000A0092C4F30252DC
:101F8000022A05D059F804CB0021032A08D009E021
:101F900009F1070121F00702F2E802C1914605E0CC
:101FA0001FFA8CFC042A01D10CF0FF0C4FF0000842
:101FB000220728D5702806D0009B83F0100353EA2F
:101FC0000A0305D00EE040228DF80420012208E02B
:101FD0005CEA010206D030228DF804208DF805005D
:101FE00002229046009B83F0080353EA0A030AD1B9
:101FF0005CEA010201D1620705D530228DF8042088
:102000004FF001087F1E582804D034A003900EA87A
:1020100002900DE036A0F9E753466046009AFEF7BD
:10202000E1F884460398825C0298401E0290027098
:102030005CEA0100F0D1029806A9081A00F1200A12
:10204000600702D524F4803400E00127574502DD03
:10205000A7EB0A0000E0002000EB0A0100900598C1
:102060004144401A0590E00306D45B462146179A86
:10207000059800F0B3F90544002706E001A85A4688
:10208000C05D179990476D1C7F1C4745F6DBE00348
:102090000CD55B462146179A059800F09FF9054438
:1020A00004E030205A46179990476D1C0099481E4D
:1020B00000900029F5DC08E0029802995A46007861
:1020C000491C0291179990476D1CBAF10001AAF1C1
:1020D000010AF1DC65E100000928010030313233EA
:1020E0003435363738396162636465660000000054
:1020F000303132333435363738394142434445463E
:102100000000000000F058F90544761C30780028E3
:102110007FF4ECAD19B02846BDE8F08F620700D41B
:10212000062709F1070222F0070CFCE80223E1462A
:1021300003F000485FEA080C02D00FF2702C0DE0AB
:102140005FEA045C02D50FF2682C07E05FEAC47C0A
:1021500002D00FF2602C01E0AFF2700C4FF0FF38AC
:1021600023F00043CDF850C065280CD006DC45288C
:1021700009D046281DD047283DD13DE0662818D01B
:1021800067287ED138E00021112F01DB112000E00B
:10219000781CCDE9000106A90EA8FFF785FCDDE952
:1021A0000F010E9A03910021009207F1010A049198
:1021B0004DE04FF000400097CDE9011006A90EA8B0
:1021C000FFF772FCDDE90F0203920E9B11990022CA
:1021D000DDF80CA00093049211B9791C00EB010A00
:1021E000B7EB0A0004D4C0F1FF3007F1010A0490F4
:1021F000AAEB0700019044E0012F00DA012700213B
:10220000112F01DD112000E03846CDE9000106A9BB
:102210000EA8FFF749FCDDE90F010E9A039100219A
:1022200004910092BA4621070CD40399514500DA73
:102230008A46BAF1010F05DD009AAAF10101515C4D
:10224000302908D0B84202DA10F1040F06DA012171
:10225000CDE9011015E0AAF10101E9E7002805DC4C
:10226000049901440491AAEB000102E0411C51458C
:1022700000DD8A460499401A401C01904FF000404E
:102280000290200704D40198504501DBCDF804806A
:1022900000208DF84F0002980DF14F07B0F1004F6C
:1022A00025D02B200E9002984FF0020800280CDA5F
:1022B000404202902D200E9007E00A210298FEF77E
:1022C000EBF93031029007F8011DB8F10001A8F1D7
:1022D0000108F2DC02980028EFD1791E0E980870F0
:1022E000307800F0200040F0450007F8020D12A8F9
:1022F000C01B00F107081498007800B1012000EB22
:102300000A01019801EBE07105984144401A401E12
:102310000590E00306D45B462146179A059800F025
:102320005DF805441498007818B15A4617999047FB
:102330006D1CE00324D55B462146179A059800F0F2
:102340004DF805441CE00498002807DBDDE9030193
:10235000884203DD0098405C179901E0179930200E
:102360005A469047049805F10105401C04900198D5
:10237000401E019004D12E205A46179990476D1C9B
:10238000BAF10001AAF1010ADDDC05E017F8010B42
:102390005A46179990476D1CB8F10001A8F1010841
:1023A000F4DC5B462146179A0598ABE62D00000049
:1023B0002B000000200000002DE9F041044600251C
:1023C0001E461746880404D405E039462020B0474D
:1023D0006D1C641EF9D52846BDE8F0812DE9F04159
:1023E000044600251E469046C80301D5302700E06C
:1023F0002027880404D505E041463846B0476D1CC7
:10240000641EF9D52846BDE8F0814A68002A06D046
:102410000A68531C0B6010704868401E4860704783
:102420007047000070B50446064DE1B22846FFF73C
:10243000DBFA80212846FFF771FA0028F9D0204600
:1024400070BD00000010014010B5002821D0114BD4
:102450000022001F196803E0814203D80A46496838
:102460000029F9D152B11368841A9C4204D1006842
:1024700018441060104602E0506000E0186039B166
:1024800002680B1A934203D10B681A440260496830
:10249000416010BD50000020FFF71CF80A484FF4BF
:1024A00080610180C114018007498014891C088063
:1024B000FEF7D2FDFEF70EFFFFF79CFA03A0FFF731
:1024C000B9FA00F06FF9FEE7181C02400D0AB1FCE2
:1024D000BBF057462D4E454F2D364D20475053C427
:1024E000A3BFE9B2E2CAD4C0FDB3CC0D0A0000001C
:1024F000F0B50B30154D20F007010024144A0FE011
:1025000003688B420BD38B4205D95E1A4318476888
:10251000C3E9006700E04368136002C004E0021DE5
:1025200010680028ECD12046002802D1286808B1A4
:102530000020F0BD064A07481060074A121A22F030
:102540000702C0E9002401202860D7E754000020DA
:10255000500000206402002060120020C2680A615E
:1025600002694A6142698A618269CA61C26B0A6210
:10257000D0E91223C1E90C23D0E91423C1E91423C3
:1025800090F828204E2A14D0D0E9082383F0004385
:10259000C1E9102390F83820452A0DD0D0E90C204D
:1025A00080F00040C1E91220086840F00100086096
:1025B0007047D0E90823EBE7D0E90C20F2E72DE9DA
:1025C000F041002642684A62D0E90E23C1E90A239D
:1025D000D0E91023C1E90C23D0E91223C1E90E236D
:1025E00000234FF0010C002200EB83070DE0BC68D4
:1025F00054B102EB820501EB8505D5F8788044459E
:1026000002D1C5F87CC0761C521C4C6F9442EEDCA3
:102610005B1C0C2BE7DB0E67086840F002000860CB
:10262000BDE8F08170B5D0E900329A4231DC0C236C
:10263000B3EB820F2DDB012A01DA012242608268AE
:102640004A674268521E92008368141DA34201DA51
:102650009D1A00E00425002215E043685B1E02EB92
:10266000830302EB820400EB840403EB830301EB9E
:102670008303E66843F8786F66699E60A669DE604A
:10268000E4691C61521CAA42E7DB086840F00400C0
:10269000086070BD70B505460C46287F412802D001
:1026A000562809D00CE0216A022001B92062616A33
:1026B000012905D1606203E00020206201206062F0
:1026C0001C222946201DFDF7CCFD95F828004E2838
:1026D00020D0D5E9080181F00041C4E9100195F846
:1026E0003800452819D0D5E90C0181F00041C4E932
:1026F0001201D5E910010A4A0A4BFDF7D3FEC4E9DD
:102700001601D5E91201C4E91801206840F008005B
:10271000206070BDD5E90801DFE7D5E90C01E6E7E7
:102720006F1283C0CAA1FD3FD0E90023C1E918237D
:10273000D0E90423C1E91A23426B006BC1E91602F8
:10274000086840F010000860704710B5C2B003463A
:102750000C4600200146FF2C0BDC2246194601A83E
:10276000FDF77FFD01A90020085541A901A800F04F
:102770002FFE42B010BD30B5C1B003460C46154621
:102780000020FF2C0CDC224619466846FDF769FD47
:1027900000200DF804002A4640A96846FDF7A3FD75
:1027A00041B030BDEAB04FF0000800F00BFD2F49FA
:1027B000016000F007FD2E49416010A800F0F9FD0E
:1027C0000BA800F0A7FB2B4D2B4E00244FF4807775
:1027D000287848B110AB3A4628490BA800F02AF9EE
:1027E0002C704FF001080AE0307840B110AB3A4647
:1027F00023490BA800F01EF934704FF00108B8F11E
:10280000000FE5D00123082204A911A8FEF770FCEF
:1028100007A807C88DE80700DDE905230499521CC5
:1028200001F26C7117A0FFF705F9DDE92201DDE97E
:102830002023CDE900011AA0FFF7FCF8DDE92C12F6
:102840001CA0FFF7F7F8DDE9242323A0FFF7F2F837
:10285000DDE9262325A0FFF7EDF8DDE9282328A0F0
:10286000FFF7E8F84FF00008B2E70000ED3300088A
:102870002124000811000020100000205C0000202E
:102880005C0100200D0ACAB1BCE425642C25642C2F
:1028900025642C25642C25642C25640D0A00000079
:1028A0000D0ACEB3B6C8A3BA25662CBEADB6C825F0
:1028B000660D0A000D0AD5FDD4DACAB9D3C3B5C472
:1028C000CEC0D0C7A3BA25642CBFC9BCFBCEC0D034
:1028D000C7A3BA25640000000D0ABAA3B0CEB8DFC2
:1028E000B6C8A3BA256620C3D72000000D0ACBD9ED
:1028F000B6C8A3BA2566206B6D2F682000000000C3
:102900000D0ABABDCFF2A3BA256620B6C8000000F2
:102910000FB410B5ADF5816D00F054FC4468002C87
:1029200010D00DF2144340F2FF3101A8DDF810245D
:10293000FFF790F801460020CDF80404002901DDDE
:1029400001A8A0470DF5816D10BC5DF814FB2DE9C1
:10295000F04704468846174604EB08060020002589
:102960004FF0FF39C7F800900BE02378242B02D1F9
:1029700008B1002407E02A2B0DD000B15D40641C93
:10298000401CB442F1D33968002902DA002C00D08F
:102990000020BDE8F087611DB142F4D8E1780D292F
:1029A000F1D121790A29EED110220221601CFFF712
:1029B000E2FE01463860301BA8EB0000401DA94232
:1029C000E1D0C7F800900024DDE7000070B50546AF
:1029D000052901DA002070BD154C05222846216822
:1029E000FDF774FCC8B1052228466168FDF76EFC4E
:1029F000A8B105222846A168FDF768FC88B1052228
:102A00002846E168FDF762FC68B105222846216985
:102A1000FDF75CFC48B1002070BD012070BD0220B4
:102A200070BD042070BD082070BD102070BD000076
:102A300038000020F8B506461D460024002000900E
:102A4000304600F0A1FA28E0641C042814D004DC0D
:102A5000012807D002281DD109E0082811D010282C
:102A600018D113E029460098FFF778FD12E02946B7
:102A70000098FFF7A4FD0DE029460098FFF7D2FD6E
:102A800008E029460098FFF705FE03E02946009874
:102A9000FFF74AFE0098FFF7D7FC6946304600F082
:102AA00061FA0028D0D12046F8BD000070B5CEB044
:102AB00005460E46144680212046FDF7EBFB3146C5
:102AC000284600F068FC04F1680204F16003CDE9D7
:102AD000093204F1780004F17001CDE90B10203ABD
:102AE000203BCDE9053220382039CDE90710183ACE
:102AF000183BCDE901321C38011FCDE903101C3809
:102B000000900EAB0EA23146284600F05FFB0E2867
:102B100005D018A0FFF7FCFE00204EB070BD0EA837
:102B2000FDF7C3FB014622460EA8FFF787F820B148
:102B300015A0FFF7EDFE0020EFE70120EDE7000014
:102B40002447504747412C25732C25662C25432CC0
:102B500025662C25432C25642C25642C25662C25E4
:102B6000662C25432C25662C25432C25662C2564B4
:102B70002A0000004750474741207061727365206A
:102B80006572726F72210000475047474120746997
:102B90006D65207061727365206572726F722100BD
:102BA00070B590B005460E46144650212046FDF7FC
:102BB00071FB3146284600F0EEFB04F1480004F1B9
:102BC0004001CDE90E10183804F13802011F131F1F
:102BD000CDE90C320A1FCDE90A101038011F131F6E
:102BE000CDE908320A1FCDE906101038131F011F66
:102BF000CDE904320A1F231DCDE90032CDE90210D0
:102C0000234607A23146284600F0E0FA112805D0F5
:102C100012A0FFF77DFE002010B070BD0120FBE781
:102C20002447504753412C25432C25642C25642CE4
:102C300025642C25642C25642C25642C25642C25E6
:102C4000642C25642C25642C25642C25642C256497
:102C50002C25662C25662C25662A000047504753F4
:102C600041207061727365206572726F722100007D
:102C700070B592B005460E4614465C212046FDF71D
:102C800009FB3146284600F086FB04F15800011F7D
:102C90000A1FCDE91010143804F14803011FCDE9D3
:102CA0000E320A1FCDE90C101438143B011FCDE978
:102CB0000A320A1FCDE908101438143B011FCDE970
:102CC00006320A1FCDE90410143B1438211DCDE94A
:102CD0000232CDE9001023460E4A3146284600F064
:102CE00075FA6168491E8900A2680B1D9A4201DAD3
:102CF000511A00E00421032202EB8101884201DB2A
:102D0000132805DD04A0FFF703FE002012B070BDFC
:102D10000120FBE774340008475047535620706188
:102D2000727365206572726F7221000070B5CEB04B
:102D300005460E46144660212046FDF7ABFA3146A3
:102D4000284600F028FB04F15002CDE9094204F1C5
:102D50005900411ECDE90B10083A04F14003CDE9BA
:102D60000532201D011DCDE90710203A203BCDE999
:102D7000013234302831CDE903101C3800900EABFD
:102D800013A23146284600F021FA0D2807D00E285C
:102D900005D01CA0FFF7BCFD00204EB070BD0EA8F2
:102DA000FDF783FA014622460EA8FEF747FF20B141
:102DB00019A0FFF7ADFD0020EFE720685A2801DADF
:102DC000643020606068401E60600120E5E700001C
:102DD000244750524D432C25732C25432C25662C1B
:102DE00025432C25662C25432C25662C25662C2571
:102DF00032642532642532642C25662C25432C252B
:102E0000432A00004750524D432070617273652081
:102E10006572726F722100004750524D43207469F1
:102E20006D65207061727365206572726F7221002A
:102E300070B588B005460E46144640212046FDF781
:102E400029FA3146284600F0A6FA04F1280204F1D6
:102E50002003CDE9033204F1380004F13001CDE95B
:102E600005102039203ACDE9002120380290234670
:102E700010A23146284600F0A9F9082805D015A06F
:102E8000FFF746FD002008B070BD207A54280AD113
:102E9000207E4D2807D194F828004E2803D194F8BD
:102EA00038004B2804D010A0FFF732FD0020EAE7DD
:102EB0000120E8E72447505654472C25662C25432B
:102EC0002C25662C25432C25662C25432C25662C89
:102ED00025432A004750565447207061727365207D
:102EE0006572726F7221000047505654472070611E
:102EF000727365206572726F722028666F726D61E1
:102F000074206572726F7229210000000021016136
:102F10000120704770B50546002600F053F984681B
:102F2000FF2C01DC4FF4807414212846FDF7B2F920
:102F30002046FFF7DDFAA86018B1EC6001263046A4
:102F400070BD02A0FFF7E4FCF9E70000496E73755D
:102F50006666696369656E74206D656D6F7279214F
:102F60000000000010B5024600241068002809D0B7
:102F700043680B6004688168116009B900215160E1
:102F8000FFF762FA204610BD2DE9F041074688465A
:102F900014460026FD68A54200DB25462A46414628
:102FA000384600F007F80644641B002CF2D1304686
:102FB000BDE8F0812DE9F84305460B46144600268E
:102FC0002869E9682044884202DB2846FFF79EFF13
:102FD0002969A868224608441946FDF742F928697C
:102FE000204428614FF0000828696A46811BA868C0
:102FF0003044FFF7ACFC8146B9F1000F1AD00098BD
:1030000000287DDB2869AA68811B701C491E1044BA
:10301000FFF7DCFC07460C20FFF76AFA041E70D0AD
:10302000C4F80480042F5AD00FDC012F1FD0022FC8
:103030000FD138E036B12869821B2A61A86881194E
:10304000FDF70FF93046BDE8F883082F65D0102F43
:103050007ED02046FFF7F8F90024002C50D0686895
:1030600000B184606C602868002872D08FE08020F6
:10307000FFF73EFA6060002843D001212160A96873
:1030800002468B1949461846FFF710FD0028E4D187
:10309000606818B1FFF7D8F9C4F804802046FFF73C
:1030A000D3F90024D9E75020FFF722FA6060002806
:1030B00071D002212160A96802468B194946184641
:1030C000FFF76EFD0028C8D1606818B1FFF7BCF9A2
:1030D000C4F804802046FFF7B7F90024BDE75C2060
:1030E000FFF706FA606060B104212160A96802461A
:1030F0008B1949461846FFF7BBFD0028ADD101E00A
:1031000047E042E0606818B1FFF79EF9C4F8048018
:103110002046FFF799F900249FE76020FFF7E8F9C0
:10312000606090B308212160A96802468B19494666
:103130001846FFF7FBFD00288FD1606818B1FFF734
:1031400083F9C4F804802046FFF77EF9002484E761
:1031500000E01BE04020FFF7CBF96060A8B1102130
:103160002160A96802468B1949461846FFF760FEA0
:10317000002897D1606818B1FFF766F9C4F8048099
:103180002046FFF761F9002467E704E02C60C4F8EB
:1031900008804E4428E714B12046FFF755F903A0F4
:1031A000FFF7B6FB4FF0FF304DE70000496E737537
:1031B0006666696369656E74206D656D6F727921ED
:1031C00000000000004870472C0000200FB42DE9DB
:1031D000F84F044667184FF001080025A946AB4692
:1031E0000DA80090BEE0B8F1010F09D0B8F1020FB0
:1031F00011D0B8F1030F12D0B8F1040F07D11EE0BF
:10320000BAF1250F04D014F8010B504528D1A6E0DF
:103210004FF00208A3E00025B1464FF00308FDF788
:1032200013F8006810F80A00202877D04E4506D918
:10323000A6EB09010A224846FFF79DFA0546A24679
:1032400055B90C980178632901D0432904D121781C
:103250004078814200D001251DB12C44BC420AD9DE
:1032600089E00C98417829B13A1B2046FDF724F8F3
:10327000041E00D13C46BC427DD84FF001080BF142
:10328000010B0026A4EB0A050C980078632812D0E5
:1032900008DC43280FD0452823D0472821D05328C5
:1032A0002AD111E065281CD066281AD0672818D0CA
:1032B000732821D108E0009840C80090E5B1DEB144
:1032C0009AF80000307017E0009840C800909DB157
:1032D00096B12A4651463046FCF7C3FF0020705590
:1032E0000AE0009840C8009035B12EB129465046FA
:1032F000FFF72BFAC6E9000186B9009840C8009094
:1033000066B15DB10C9800786F2822D007DC582890
:1033100018D0642808D069282DD105E01FE0752851
:1033200009D0782827D10DE00A2229465046FFF718
:1033300022FA306013E00A2229465046FFF71BFAB2
:1033400030600CE0102229465046FFF714FA306036
:1033500005E0082229465046FFF70DFA30600C9828
:10336000401C0C900C9E96F800A0BAF1000F02D001
:10337000BC42FFF438AF5846BDE8F80F5DF814FBC7
:10338000722101600021416001228260C1600161FF
:1033900041618161704710B50346FFF713FF026872
:1033A000002A05D0002903D0BDE810401846104778
:1033B00010BD10B504464FF4B4712046FCF76AFF07
:1033C000201DFFF7DDFF002020620120606210BD9C
:1033D00000B583B00A460021CDE9001101466846D8
:1033E000FDF70BFADDE9000103B000BD70470040B6
:1033F00040404040404040404141414141404040C8
:1034000040404040404040404040404040404005F7
:10341000020202020202020202020202020202206E
:10342000202020202020202020020202020202026E
:10343000909090909090101010101010101010108C
:1034400010101010101010101010020202020202D0
:1034500088888888888808080808080808080808EC
:1034600008080808080808080808020202024000C4
:10347000EF3300082447504753562C25642C25640D
:103480002C25642C25642C25642C25642C25642C87
:1034900025642C25642C25642C25642C25642C257E
:1034A000642C25642C25642C25642C25642C25642F
:1034B0002C25642A000000004750474741000000C7
:1034C00047504753410000004750524D4300000011
:1034D00047505654470000004750475356000000DD
:1034E00000350008000000205C000000881A000879
:1034F0005C3500085C00002004520000981A0008A7
:103500000000000001020304010203040607080989
:1035100000000000000100000000000000000000AA
:10352000000000000000000000000000000000009B
:103530000000000000040000B8340008C034000897
:10354000D8340008C8340008D03400080000000057
:0C3550000000000000000000000000006F
:04000005080001AD41
:00000001FF
